101         000000000002402281612A094101CITY NATIONAL BANK     FPP FILM LIMITED - OMEG        
5200FPP FILM LIMITED                    000UNKNOWNCCDTRANSACTIO      240228   1000000000000001
622121000248031104000049911  0000010000APP001         Apple Inc               0122016060000001
622                          0000090000REV            REVOLUTION ENTERTAINME  0122016060000002
8200000002false0000000010000000000000000000000000                         000000000000001
900000100000100000002false000000001000000000000000                                       
9999999999999999999999999999999999999999999999999999999999999999999999999999999999999999999999
9999999999999999999999999999999999999999999999999999999999999999999999999999999999999999999999
9999999999999999999999999999999999999999999999999999999999999999999999999999999999999999999999
9999999999999999999999999999999999999999999999999999999999999999999999999999999999999999999999
